:020000040020DA
:100000002C2900208D022000E39E2000E19E20008C
:10001000E19E2000E19E2000E19E20000000000003
:10002000000000000000000000000000E19E200031
:10003000E19E200000000000E19E2000819F200042
:10004000A39F2000A99F2000AF9F2000B59F200004
:1000500000000000879F20008D9F2000E19E20006F
:10006000E19E2000000000000000000000000000F1
:100070000000000000000000E19E200000000000E1
:100080000000000000000000E19E2000E19E200032
:10009000E19E2000E19E2000E19E2000E19E2000E4
:1000A000E19E2000E19E2000E19E2000E19E2000D4
:1000B000E19E2000E19E2000E19E2000E19E2000C4
:1000C000E19E2000E19E2000E19E2000E19E2000B4
:1000D000E19E200000000000000000000000000081
:1000E0000000000000000000000000000000000010
:1000F0000000000000000000C51D2000D51D2000EC
:1001000000000000000000000000000000000000EF
:1001100000000000000000000000000000000000DF
:1001200000000000000000000000000000000000CF
:1001300000000000000000000000000000000000BF
:1001400000000000000000000000000000000000AF
:10015000000000000000000000000000000000009F
:10016000000000000000000000000000000000008F
:10017000000000000000000000000000000000007F
:10018000000000000000000000000000000000006F
:10019000000000000000000000000000000000005F
:1001A000000000000000000000000000000000004F
:1001B000000000000000000000000000000000003F
:1001C000000000000000000000000000000000002F
:1001D000000000000000000000000000000000001F
:1001E000000000000000000000000000000000000F
:1001F00000000000000000000000000000000000FF
:1002000000000000000000000000000000000000EE
:1002100000000000000000000000000000000000DE
:1002200000000000000000000000000000000000CE
:1002300000000000000000000000000000000000BE
:1002400000000000000000000000000000000000AE
:10025000000000000000000000000000000000009E
:10026000000000000000000000000000000000008E
:10027000E19E2000B91C2000D11C20002D1620007A
:10028000E19E200061112000E19E200008B5094B8D
:10029000FF221A600848094A4824E3690849121AEB
:1002A00098470848084AA3690021121A984700F0A5
:1002B0004FFCFEE7B4200D40400000202A02002041
:1002C000ECB72000300200202C21002010B503885C
:1002D00004462BB1662B09D000230380032010BDF8
:1002E00000F02AFC66232380012010BD034B1B78FD
:1002F0008B42F9D1104600F0B7FBF3E72221002032
:100300002DE9F04100248046254608EB05035B7883
:1003100018F8056003EB0626B6B296B9002C12DB7E
:1003200001D001342CE0194C19482168194A0844BD
:10033000C1F5807109F0C1FE2368184420600124D2
:100340001EE0002C0DDC75B1104F11483968124ABF
:100350000844C1F5807109F0B0FE3B68184438606C
:1003600001E04FF0FF34094F09483968334608442B
:100370000A4AC1F5807109F0A0FE3B681844386054
:100380000235102DC1D1BDE8F08100BF540200201C
:100390007516002098B3200099B320009BB320006D
:1003A000F8B5838D0446DC2B68D009D8A42B16D071
:1003B000D62B48D0002B40F0D780A42383850EE0B5
:1003C00040F25112934200F0B780B3F5A97F00F0DC
:1003D000C28040F20312934240F0C6808AE004F1EA
:1003E0002C006349332206F063F8012801D800206D
:1003F000F8BD6049604809F069FC604B0E221A6044
:100400005F4B186807F0A4FE5E4B186006E05D4D78
:100410005B4B296818680AF045FD2860594B574D19
:100420001868554EF0B1FFF76BFF2968564A7018EF
:10043000C1F5807109F041FE2B681844D32828606B
:10044000E5D9D623A3854C4809F09EFC4A490246CB
:1004500004F12C0006F02CF80128C8D9474B0022E3
:100460001A60D4E72968494A7018C1F5807109F00B
:1004700024FE2B681844DC232860A3853E4809F03D
:1004800083FC3D49024604F12C0006F011F80128D6
:10049000ADD93A4B00221A6005F07EF93C4B18604A
:1004A0003B4E364D3068344F002838D00830FFF7C7
:1004B00027FF29683368374A781893F82430C1F544
:1004C000807109F0FAFD2B6818442860306805F047
:1004D00055F9FFF715FF2968336878189B69C1F54E
:1004E00080712D4A09F0E9FD2B68184440F203138E
:1004F0002860A385204809F047FC1F49024604F103
:100500002C0005F0D5FF01287FF671AF204D1B4B65
:10051000002228681A6009F07FFF2860C0E7296878
:100520001E4A7818C1F5807109F0C7FD2B68184480
:1005300040F251132860A3850F4809F025FC0E49AD
:10054000024604F12C0005F0B3FF01287FF64FAFFF
:100550004FF4A973A38504F12C0011490F2205F073
:10056000A7FF01287FF643AF0023A3850320F8BD32
:100570009EB32000D2B32000751600205402002044
:10058000F800002058020020F2B32000E1B3200060
:1005900050020020F4B32000FEB3200006B4200077
:1005A0000DB4200000487047A103200008B5074B98
:1005B0003F221A7050225A70054B02221A8001F015
:1005C000D5FDBDE8084000F057B900BF681A00200B
:1005D000541A002070B504880546B4F5CF7F18D0B2
:1005E0000FD854BB2F4B20461C702F4B5B6998478C
:1005F0002E4B85211868224602F046FC4FF4CF733B
:1006000019E040F2AF139C423AD0B4F5DE7F3ED001
:1006100013E0852939D1264B812001219B68984719
:10062000204B1B786BB92348802109F05EFDFFF752
:10063000BDFF40F2AF132B8027E000232B80032067
:1006400070BD194B01205B6998471B4809F0CEFC2F
:100650001A4C04F1600614F8022C237C52B1012BD1
:1006600008D8202001F066FC204606F011FA0A2086
:1006700001F060FC2034B442EDD14FF4DE73DAE7D0
:100680000C4809F04DFD0028CAD1012070BD0C4B6B
:100690001B788B42F1D1064B9A42EED11E200AF014
:1006A000CBF8EAE77416002034B3200024040020BD
:1006B000A8B12000400200201DB42000661E0020CA
:1006C0000E210020034630B5154A85B000F1100513
:1006D00053F8041BAB4242F8041BF9D103466C46A5
:1006E000224618685968083303C2AB421446F7D152
:1006F0000C4B012468460C491C7009F05CFE00217B
:100700006846224604F068FD1E20694606F0BEFBDE
:1007100018B10349402209F019FF05B030BD00BFF0
:100720005813002074160020601A002008B54FF4FA
:10073000E13001F059FC0448002102F0D1FBBDE892
:100740000840024801F00CBDB00000205107200015
:1007500030B52D4C85B023782546212B1FD16178EB
:100760002A4801F08FFD2A4B002119806378502B15
:100770003BD11022684609F05BFA6B4654F8020F31
:10078000616803C3234801F07DFD684606F080F9E7
:100790000A2001F0CFFB6846FFF794FF25E03F2BCE
:1007A00023D11D48617801F06DFD63784D2B19D17F
:1007B000212323700023194A01331A4412F8012C13
:1007C0001749140902F00F02645C525C05EB430008
:1007D000082B05F813404270EDD10D4B12221A8000
:1007E00001F0C4FC0A4B00221A800E4C0E4A04F1A0
:1007F0001005234603CBAB42106051601C4602F14A
:100800000802F6D105B030BD681A002055B42000AA
:10081000541A00207BB420008BB42000601A002002
:10082000ABB42000701A00206813002008B50D48F2
:100830000D49102209F0F0F878B90C4801F022FDBA
:10084000094806F025F90A4801F01CFD094806F0A0
:100850001FF90A2001F06EFB01E001F087FC002087
:1008600008BD00BF68130020701A0020BCB420002F
:10087000F0B42000801A0020014B00221A8070473B
:10088000541A002038B5038904469E2B0AD004D898
:10089000002B50D19E23038104E0A32B1BD0BA2B45
:1008A00041D048E004F10800202105F061FE012854
:1008B00001D8002038BD04F152002149042209F07A
:1008C00091FA30B11F4B10221A70002323810220AD
:1008D00038BDA323238104F108052846202105F013
:1008E00047FE0128E5D994F852302F2BEAD194F82D
:1008F0005330202B04D1144B1B88A4F86C300DE02E
:10090000284609F08FFD0023204480F8513004F17F
:10091000520104F16C00022209F0AEFA012384F8BE
:100920007430BA23238104F108000A2105F020FE67
:100930000128F6D8BDE700232381032038BD00BF7E
:1009400039B62000F41A0020F6B4200038B5838DA3
:100950000446632B0D4604D0762B11D0C3B9632314
:100960008385284609F010FA2946024604F12C0036
:1009700005F09EFD012801D8002038BD7623A3850F
:1009800004F12C0004491B2205F092FD0128F3D943
:100990000023A385032038BDB5B5200010B5B0F8FD
:1009A00050300446882B21D003D83BB1862B12D07F
:1009B0004AE08E2B35D08F2B3CD045E003676D305D
:1009C000FFF7F0FD206748BB224B1B88A4F86C3072
:1009D0008623A4F8503020461F49FFF7B7FF0128AF
:1009E00001D8002010BD8823A4F85030A38D13B186
:1009F000562B02D009E05623A38504F12C00174999
:100A0000582205F055FD0128EBD9154A0023102185
:100A1000A3851170A4F85030022010BD8E23A4F8D5
:100A2000503020460F49FFF791FF0128D9D98F2375
:100A3000A4F85030236F204698470128D1D90023CD
:100A40002367074B10221A700023A4F850300320AC
:100A500010BD00BFD1B5200002B52000E0B52000D8
:100A6000F41A00205FB520002DE9F0412F4D044617
:100A70002B78A84613F0300601D11A0609D5002CB0
:100A800051D0002323672146BDE8F041284809F0F2
:100A9000DEBB03F0400202F0FF073AB3244809F03E
:100AA000C2FB044620B9202388F80030BDE8F0815D
:100AB000204B2146186804F1520505F0E5FD04F1CC
:100AC00008002946192209F0B2FC04F12C0029463D
:100AD000192209F0ACFCA4F85060266784F8746011
:100AE00020464FF4A06109F02BFB10E00028DAD07B
:100AF0001B070AD509F036FB48B12023276721469A
:100B00000B482B7009F0A3FB01E009F025FB204600
:100B1000FFF7B8FE94F87430012B04D12046BDE8ED
:100B2000F041FFF73BBFBDE8F08100BFF41A0020A1
:100B300060000020041B002008B54FF4A04005F021
:100B400085FDBDE80840014809F05DBB600000205C
:100B5000F7B500F05FFC00F003FD00F09DFC00F035
:100B60005DFA01F0D5F909F0E9FA00F0F1FC08F0BE
:100B700063FB022009F0B8F902F00CF900F036FC32
:100B800000F0E4F9002000F045FB012000F042FBFA
:100B90004349002000F014FC02F05AFA09F0F9F978
:100BA000042009F0A1F93F4809F020FA3E4809F075
:100BB0001DFA3E4801F066FB3D4B3E4C186809F0BB
:100BC00015FA3D4801F05EFB3C4B0025186809F022
:100BD0000DFA3B4801F056FB3A4B186809F006FA4B
:100BE000002002F057FA01F087F83748002102F0A0
:100BF00077F901F039FF6846082101F0BBF99DF84B
:100C000007309DF8067043EA07276B4603CB206048
:100C100061602E4801F036FB615D2D48013501F021
:100C200031FB072D234EF7D12A4DF1792A4801F0E7
:100C300029FBEC6A4AF6CD310220A0473946032051
:100C4000A04719210120A04769466B6B08220920A3
:100C5000984707F04FFB214A33681360736853606D
:100C600007F0ACFC1E48002102F03AF900F09AFCB3
:100C700000211C4802F034F909F036FA1A4809F04C
:100C800029FA00F0B9FB082009F02EF900F0BAFBB0
:100C900002F098F810F0FF0FF8D101F0D1F8F5E765
:100CA0000D3020003EB6200058B6200070B620005F
:100CB00028B320002421002077B6200034B3200080
:100CC0007EB6200060B32000D800002085B620004A
:100CD000A3B6200060B22000A9B62000601A002050
:100CE000700100206C00002094B1200070B50588D0
:100CF0000446772D30D07E2D3FD0002D4DD102F00F
:100D000041F8294B1870294B1D601D462B68284A55
:100D1000264E52F823204AB126480021C154936838
:100D200080209847336801333360EFE7224A13701D
:100D3000772320E01F4AD256002A12DB1B4A136891
:100D400001331360194B1C4A1B6812789342F1DB84
:100D50001A4B1B68002BEBD0184A00231360134A70
:100D6000EFE7114A00201178114A52F8232002F0CF
:100D70008BF830B97E23238013E00B4B1B788B421A
:100D80000FD10A4B0B491A688B5C03F07F038B541D
:100D90000A4A136801331360D0E70023038003205D
:100DA00070BD012070BD00BF0E2100204C0300204B
:100DB0007C0000200F210020771700205003002026
:100DC000094B1A780023934204DA084951F823109A
:100DD000814207D106490748CA5C62F07F02CA54C3
:100DE00002F096B80133EEE7771700207C00002070
:100DF0000F2100206C00002008B50948082109F0E7
:100E00009DF803210422002000F0B8FB002000F030
:100E10001FFB04480021032200F052FB012008BD03
:100E200000900D40E90E200008B50948102109F096
:100E300085F804210A46022000F0A0FB022000F001
:100E400007FB04480221042200F03AFB012008BD00
:100E500000B00D40E90E200008B50948202109F036
:100E60006DF805210422022000F088FB022000F02A
:100E7000EFFA04480221052200F022FB012008BD00
:100E800000B00D40E90E200008B50948402109F0E6
:100E900055F806210422022000F070FB022000F029
:100EA000D7FA04480221062200F00AFB012008BDFF
:100EB00000B00D40E90E200008B50948802109F076
:100EC0003DF807210422022000F058FB022000F028
:100ED000BFFA04480221072200F0F2FA012008BDFF
:100EE00000B00D40E90E200038B5054611480C460B
:100EF00009F038F9E8B10F48102109F021F91DB9BE
:100F0000032C16D10C4810E0022D12D1042C01D173
:100F10000A480AE0052C01D1094806E0062C01D157
:100F2000084802E0072C04D10748BDE83840FFF725
:100F300047BF38BD54030020A8B12000C8B120002D
:100F4000D8B12000B8B12000E8B12000014800214C
:100F500009F0F6B85403002010B5074CFF232360B6
:100F60004FF4FA6000F096F800213022062000F0DD
:100F700021FB0023236010BD00920D40802870B536
:100F80001ED1104E104D3368002423F080033360CF
:100F90002B68204643F080032B600C4B07211C601C
:100FA000224600F0EBFA3368204623F0400333601A
:100FB0002B68062123F040032B60012200F0DEFAAB
:100FC000002070BD20940D4000940D4000920D4013
:100FD000F8B500F083F80F4B0024D3E900673A46D8
:100FE000B04238BF7A1C15460443C3E90045DFF818
:100FF00028E0DEE90001821B61EB070312196B4157
:10100000CEE9002301F028FE18B1BDE8F84001F058
:10101000B3BDF8BD30020020380200200F4B104A4B
:101020001A6053F8042C42F0050243F8042C53F8DC
:10103000042C42F0020243F8042C0A4A136843F0DD
:1010400001031360084B00221A60042243F80C2CA1
:10105000012243F8082C0F22DA62704714E000E006
:1010600047E8010008200D400C000340034BD3E982
:101070000023100A40EA0360704700BF30020020DE
:10108000034BD3E90023D00B40EA4340704700BF35
:1010900038020020054B18601C3B1A6842F0010220
:1010A0001A601A68D207FCD4704700BF28000340BA
:1010B00010B5064C236823F001032360FFF788FF77
:1010C000236843F00103236010BD00BF10E000E07F
:1010D000014B1868704700BF5C030020074B084AAB
:1010E000196804331B681268120442EA0323054A94
:1010F0000B43106843EA0060704700BF40500D404A
:1011000048500D404C500D4010B50446114B1B6823
:10111000DB07FBD508F041FFFFF7E0FF231A062BA2
:10112000D8BFC41D0C4B220E1A60C4F3074243F80B
:10113000042CC4F3072243F8082CE2B243F80C2C29
:1011400008F027FF054B91201C60BDE8104000F01F
:101150007FB900BF50500D404C500D405C03002043
:1011600008B500F053FE064B002291201A6000F0F3
:1011700087F9912000F078F9BDE8084001F0E6BE5B
:101180005C0300200023084A1068084A9958084266
:1011900005D01A44D268906910F0800003D02C3337
:1011A000582BF0D10120704728200D4008B22000B4
:1011B000164A38B52C2303FB00234FF6BF72DC68B8
:1011C0000546236C62649BB213F050020DD0A369F4
:1011D000DB0609D40E4B53F825301BB12068C0B292
:1011E0009847F4E72368F2E738BD13F4D06F0BD0CB
:1011F0004FF440732363FF236360E36AE262E362B8
:10120000236B43F00103236338BD00BF08B2200005
:10121000600300202DE9F04F012885B0064600F25A
:10122000BF802C244443604B1D1995F920A005F183
:101230002007BAF1000F9946C0F2B28095F922302A
:10124000002BC0F2AD80594800F052FE584A59F8C0
:1012500004301168EC680B43136051686B6895F9B2
:1012600021B00B4353609168AB6895F822800B4323
:1012700093600023C4F8C83F2B690BEBCA021A60C5
:1012800095F823305FFA88FC01939DF8043060469E
:1012900019462A7DCDF80CC0029300F079F9029B23
:1012A000DDF80CC019466046082200F067F94FFAD5
:1012B00088F840494FEA08389DF9042058F80100A1
:1012C000012303FA02F2024348F801204FEA0A3AE6
:1012D0005AF8010003FA0BF202434AF801205022A7
:1012E000A263A26B95F8240042F4D062A2630222AA
:1012F00062634FF440722263AA696262EA69A26281
:101300007022E26242B2002A0C4614DB95F92510E5
:10131000294D41EAC20129607979120315594FB26A
:10132000BB402B431351002200F028F9234A1368D5
:1013300043F4004313602C2303FB069393F82650D9
:1013400020336FB2002F1CDB93F807A0EDB25FFAD9
:101350008AF82846414601223F0300F019F94FFA66
:101360008AFA3A59012303FA0AF313433B5108223C
:101370002846414600F002F9104A136843F48043BE
:1013800013602C2303FB0696F26896F82800136B73
:1013900043F00103136305B0BDE8F04F00F058B807
:1013A00005B0BDE8F08F00BF08B220008511200015
:1013B00028200D4020940D4004410D4030D00040C5
:1013C00001289CBF014B43F82010704760030020A8
:1013D000012808D8044B2C2202FB0030C3689A690C
:1013E0009206FCD41960704708B22000014B00221D
:1013F0001A60704700500D40014B08221A60704778
:1014000000500D40024BA0221A6050221A60704713
:1014100000500D40084A094B1A60094B80321A608F
:10142000084B80321A60084B80321A60074B4FF429
:1014300000121A60704700BF00E100E07403002052
:10144000680300206C0300207003002008ED00E01A
:10145000044B41091A6800F01F000123834042F841
:101460002130704774030020044B41091A6800F0D2
:101470001F000123834042F8213070476803002099
:10148000044B41091A6800F01F000123834042F811
:101490002130704770030020054A064B1A60064B46
:1014A0001A68064B1340B3F1807FF8D1704700BF34
:1014B0000101020100200D4004200D400000010147
:1014C000024B02EBC10243F8220070477803002070
:1014D000F8B507460E46094D002405EB411547FABD
:1014E00004F3DB07E1B204D555F824300BB13046E4
:1014F00098470134082CF2D1F8BD00BF78030020D2
:101500002DE9F04780464FEA0837DFF8409007F1B1
:10151000804505F5592500F079FCD5F8186457F891
:1015200009404FEAC80A24FA0AF446EA0400E4B281
:10153000C0B24146F6B204FA0AF4FFF7C9FFC5F893
:101540001C6447F80940BDE8F08700BF18970D40BC
:1015500002480021802208F06BBB00BF7803002006
:10156000034A044B1A60044B803A1A60704700BF6C
:1015700080400D40FC030020F8030020034B01EBEA
:10158000C0011B6843F82120704700BFFC03002006
:10159000034B01EBC0011B6843F82120704700BFDB
:1015A000F8030020024A136843F0300313607047C9
:1015B00000700D400E2870B50BD1164B164E1C68EE
:1015C00044F002051D60356825F03F0343F0010338
:1015D0003360124E336823F0FF031A431143014373
:1015E00031600F4B1B681B06FBD50E4B0E4A1B6868
:1015F00012680E2803F0FC0343EA022308BF064AE0
:101600009BB204BF1560034A9BB208BF146018B2B6
:1016100070BD00BF34000144F486084008700D40DE
:1016200000700D400C700D4010700D4010B58F20F3
:10163000064CFFF725FF8F20FFF716FF206818B133
:1016400001F066FC0023236010BD00BF00040020F1
:10165000084B93F90020002A09DB074AED211160AD
:101660001160E32111601A7862F07F021A70012084
:10167000704700BF7817002038880840094B1B6866
:101680009B07FBD4084BED221A601A60074A1268C8
:101690000AB1EF221A60064A0120137803F07F0393
:1016A000137070474C860840388808402C860840E4
:1016B0007817002038B5A0F10B04E3B20F2B0546D4
:1016C00013D80B4B1B6813F03F0302D0FFF7D6FF74
:1016D000012304EB8404074A0B3414600BB1FFF7B9
:1016E000B7FF054BE8B21D7000E0FF2040B238BDE7
:1016F000488608403C8608402802002010B50B4B65
:101700001B68990603D1FFF7A3FF012300E0002324
:10171000074A1268D207FBD5064A1468C4F30014BE
:101720000BB1FFF7ABFF204610BD00BF4886084055
:10173000648608404C860840044B186800F022007C
:10174000A0F1200358425841704700BF4C86084022
:10175000024B186800F04000704700BF4C860840FC
:1017600038B50C4600296CD00D286CD8DFE800F0A5
:10177000070D181A216B3142476B5E606267334B6D
:101780001B68003318BF012356E0314B05221B684C
:1017900003F07F030B3B93FBF2F30B33DBB24BE025
:1017A0002C4B00E02C4B1A68043B1B6843EA0223D5
:1017B00042E02A4B002008601A68243302F001023C
:1017C0000A601B6813F0200337D042F002020A605F
:1017D00038BD234B1A680023D2B2224901EBC30063
:1017E0000079904202D851F8333025E001330E2BB6
:1017F000F3D11FE01C4B1B685BB2493B1CE01B4B49
:101800001B68990603D1FFF723FF012300E00023A3
:10181000174A1268D207FBD5164A1568493DEDB242
:101820000BB1FFF72BFF6DB2256006E00B2303E041
:101830001A2301E06FF017032360002038BD07234F
:10184000FAE7022038BD012038BD00BF2C860840D1
:101850003C860840CC850840D48508400086084076
:101860004086084098B220005886084048860840C4
:10187000648608406086084038B505460C46134B20
:101880001B689B07FBD4124B93F90030002B01DB44
:10189000FFF7DEFE0F4BEE221A60691E1A60A21CD3
:1018A00043F8102C2144022000F03EFA013C0A4982
:1018B00024012143022000F049FA022000F050FAEE
:1018C000022000F065FA002038BD00BF4C860840B9
:1018D000781700203888084002C001C0F8B51F4BB7
:1018E00093F90030002B0DDBFFF7F8FB0446FFF700
:1018F000AFFEFFF7F3FB6FF009031B1BC342F8D4E5
:10190000012600E00026FFF7F9FE18B3144C236807
:1019100099061FD4134DE9232B60042723689A07E7
:1019200007D4013F17F0FF0703D00620FFF7B2FBF3
:10193000F4E723689B0704D4EE232B6001242B607B
:1019400004E0206810F00200FBD1044626B1FFF746
:1019500095FE01E00220F8BD2046F8BD7817002072
:101960004C86084038880840044B1A6810B142F091
:10197000010201E022F001021A607047008608406F
:1019800038B50C46072855D8DFE800F0040F1B1FB8
:1019900026543B4F012903D1FFF75AFE002038BDE2
:1019A000002949D1FFF76AFEF8E7A1F10B030F2BDD
:1019B00042D8C8B2FFF77EFE431C0CBF03200020B4
:1019C00038BD8CB2E2B21D4B02E08CB21C4BE2B2CD
:1019D000240A1A605C60E1E731F003052CD101F0C4
:1019E0000100FFF7C1FF174B14F002001A681BBF7C
:1019F000284642F0200222F020021A6008BF1A6036
:101A000038BD01F118031F2B16D80D230E49DA003B
:101A100051F83300844204DC8B181A790B4B1A609E
:101A2000BCE713F1FF33F1D2B8E7CCB2084B49342D
:101A30001C60B3E7012038BD022038BDC8850840CE
:101A4000D08508402486084098B22000408608408F
:101A50005886084009280DD1082A0DD161B1074BDD
:101A6000013953F8042D01F8012F054A9342F8D1AA
:101A7000002070470120704702207047C885084049
:101A8000A885084009280DD1082A0DD161B1074B5E
:101A9000083111F8012D43F8042F054A9342F8D17B
:101AA000002070470120704702207047A48508403D
:101AB000C485084070B52B4E336813F0400308D03E
:101AC000294D2B68DCB21B0605D5284BED221A6088
:101AD0001A60002070BD042CF7D9023C8C42F4DC63
:101AE000E4B2032C1BD001190139032000F024F9C2
:101AF000631E1F491B010320194300F027F903202F
:101B000000F02EF9032000F043F9032000F04CF917
:101B10000028FAD129682D682806D6D506E02B685A
:101B200003702B6843702B688370F3E7493949B21F
:101B300089B2042006F018FD032005F07F0106F0AD
:101B400013FD33685A060BD5064B1B681B0603D5DD
:101B5000084801F0DDF903E0044BED221A601A6039
:101B6000204670BD4C8608402888084038880840C8
:101B700002C0010CA0000020F8B52B4E357815F0FE
:101B800001054ED1294B01241C605C609C60A3F5CB
:101B90009323A3F51473F8221A600922C3F8902145
:101BA000152270331A6003F59B230B2203F59E73F5
:101BB0001A60A3F59B23A3F5F07340221A601A68FC
:101BC0007F2742F020021A60D52243F81C5CDF62B6
:101BD000DA61174B1878FFF76DFD164A8D201368F0
:101BE00043F004031360FFF733FC134B8E201F6098
:101BF000FFF72EFC022000F0BFF81049022000F091
:101C00009BF8032000F0B8F803200C4900F08CF892
:101C10000B48294601F064F933782046234333709A
:101C2000F8BD0020F8BD00BF78170020A8200D40A7
:101C3000280200208C8608409486084028880840A6
:101C4000A000002038B503880446E3B140F2B93261
:101C5000934203D000230380032038BD822915D18D
:101C600006F020FC06F0BCFB8021FFF723FF0028D4
:101C700005DD80B206F0AEFB0C4B1B6998470C4BA0
:101C80001A78520604D440F2B9332380012038BDBB
:101C900000221A70074B1D68FFF7F0FCFFF76CFF7E
:101CA000AB06F0D0FFF7D4FCEDE700BF60B3200037
:101CB000781700204886084008B5034801F028F945
:101CC000024B00221A6008BDA000002034880840A2
:101CD000064B07481A68042A1FBF06490A7842F0D3
:101CE00040020A7000221A6001F012B92C880840E4
:101CF000A00000207817002010B5094C00212046D4
:101D0000402207F095FF074B01221A602E205C60ED
:101D1000FFF79EFBBDE810402F20FFF799BB00BFE7
:101D20000000002004F00F4003289EBF014B00017B
:101D3000195070470000002003289EBF024B03EBA0
:101D400000104160704700BF0000002003289EBFC4
:101D5000024B03EB00108160704700BF00000020C1
:101D600003289FBF034901230A6883409CBF134394
:101D70000B60704728F00F4003289FBF03490123E1
:101D80000A6883409CBF13430B60704720F00F40EC
:101D900003289FBF034901230A6883409CBF134364
:101DA0000B60704714F00F4003289FBF044B03EBF8
:101DB0000010806800F0070088BF0020704700BF57
:101DC00000000020024B4FF0FF321A60704700BF46
:101DD00004F50F40014B01221A6070474CF00F4090
:101DE000094B1A6812F4801F1A46F9D1043B19688E
:101DF00021F4803119601168C903FCD41A6842F4D7
:101E000000321A60704700BF04200D4010B50A4B25
:101E10001A681C4612F0030F0CD0084B1A685101C7
:101E2000FBD41A685201FCD5FFF742F9FFF7D8FF3F
:101E30000023236010BD00BF58200D4004200D403A
:101E400038B5254B1C6814F03F0413D1234B53F8CD
:101E5000243023B1984768B10134032CF6D1204DCA
:101E60002B783BB1FFF734F90446FFF737F9201A16
:101E7000092801D830BF38BD002CFBD0194B1A6897
:101E800022F400321A60184A1168C902FBD419689A
:101E900041F4803119601368DB03FCD5FFF71EF9AC
:101EA000201A092803D8BDE83840FFF799BF6328F6
:101EB0000E4C02D92B78022B00D00123236000F0B6
:101EC000D9FF20B1FFF78CFF0023236038BDFFF757
:101ED000FFF80028CED1F5E748860840040400202A
:101EE0007917002000200D4004200D4058200D409F
:101EF0000023064A52F82310814206D011B942F855
:101F0000230070470133032BF3D1704704040020F2
:101F1000054B00221A60054A136843F0040313605E
:101F2000034B01221A70704758200D4010ED00E05D
:101F30007917002070B50E4C054626784EB930460C
:101F4000C021FFF745FA30460D21FFF741FA012382
:101F500023700020E9B2FFF73BFA0A2D05D10020DB
:101F6000C021FFF735FA00232370284670BD00BF5B
:101F70007A17002030B5184B1A78431E3AB9174A21
:101F80001278122A03D1164A12784B2A03D001F58F
:101F90002011273117E04A0802F12814B4F1281F54
:101FA00004D014F8015D03F8015FF7E701F5201193
:101FB00027310023934205DA11F801598418E554BA
:101FC0000133F7E730BD074A914204D011F80129E7
:101FD00003F8012FF7E730BD2B0028002A00280066
:101FE000290028002700280000200149FFF7E8B950
:101FF000C92120002DE9F74F0388074633B1B3F517
:10200000817F11D00023038003208EE0484A138093
:10201000484A1380484A1380484B01221A704FF4F3
:1020200081733B80012080E082294FF00106F9D1C5
:10203000DFF804914248B9F80050424B425D1E70EF
:10204000432ADFF8EC8082462BD1DFF8E8B0BBF8FA
:102050000020954225D2521B052A22DD00EB050CFB
:10206000604639490622CDF804C007F0D5FCDDF8FA
:1020700004C00446A8B960462146062207F0D8FDF0
:102080002E4BA8F80040ABF80040A9F800401E70A5
:102090002E4B185D013407F0B9FF0D2CF8D1002448
:1020A00038E0B8F80060B542F9D00AD2741BA4B287
:1020B0008C2C20D80AEB05012246254807F0DEFCCF
:1020C0001AE006F19C04641BA4B28C2C13D82B4696
:1020D0001F4A591B9B2B114405D81AF80310521B99
:1020E000D1540133F4E70023B34205D21AF8032098
:1020F000CA540133F8E700240F4B1E800F4B1A78A7
:1021000042B90C4A13481288A8F8002001221A701C
:1021100000F0FEFE104B1C80002C80D00F4B1B6883
:1021200003B1984704F0CCFA79E703B0BDE8F08F2B
:102130007A130020781300207C1300201718002049
:102140007B17002018210020D3B62000DAB620002B
:10215000681A0020B0000020541A0020100400204B
:10216000014B1860704700BF1004002038B5C02034
:1021700007F04CFF114B00241149A2B2098891428B
:1021800016D93C2A04BF0F4B1B6818785D1CC02869
:1021900004D1DB2007F03AFFDC2004E0DB2802D189
:1021A00007F034FFDD2007F031FF01342B46E3E771
:1021B000C02007F02BFF002038BD00BF681A0020A8
:1021C000541A0020001B002038B5284B1A78032A27
:1021D00031D8DFE802F048170602C02843D10122B7
:1021E00013E0DC2808D0DD2808D003221A70204B29
:1021F0001A88204B1A8036E0C02000E0DB20012244
:102200001A7018E0DB2802D102221A702BE0C028D5
:1022100011D1184A1188164A1088814223D0164CD1
:102220002488844216BF002211801A70134800F0DF
:102230006FFE012038BD0F490F4C0D8824886A1CA1
:102240009C2A08BF0022A24205D103221A70084B23
:102250001B880B8007E00A4B542858550A8002D18E
:102260001B5D432BE2D0002038BD00BF17180020B3
:102270007A130020781300207C130020B000002087
:102280007B1700200FB407B504AA52F8041B0448BA
:10229000019200F035F803B05DF804EB04B070472C
:1022A000C00000201FB5084C8DE80300114602A8AD
:1022B0001A460294CDF80CD000F022F8009B0022C0
:1022C0001A7004B010BD00BF93A0200070B5054681
:1022D0000C46102C07D92B686868084910229847CB
:1022E00050B9103CF5E734B12B6868682246BDE868
:1022F000704002491847204670BD00BF41B720001A
:102300002DE9F04F80468FB0069107920026069B7C
:102310001B78002B00F05F83069B1C4613F8012BF3
:102320001AB9069B9C4203D10FE0252AF5D1F8E7A4
:10233000069BD8F80400E51A0699D8F800302A461A
:102340009847002840F02A832E442378002B00F081
:1023500042836378611C002B00F03D8300240A4611
:1023600011F8013B2B2B11D006D8202B11D0232B99
:1023700012D144F00804F2E72D2B04D0302B0BD1FE
:1023800044F01004EBE744F00104E8E744F00604ED
:10239000E5E744F00204E2E7A3F1310108290DD892
:1023A000134600251A4613F8011BA1F13000092835
:1023B00011D80A2202FB0515303DF3E72A2B09D17B
:1023C000079B01321D68191D002D0791B8BF44F00D
:1023D000010400E0002513782E2B1CD15178531CEA
:1023E000A1F1300009280ED8194600270A780B46BB
:1023F000A2F13000092801F101010FD80A2303FBE3
:102400000727303FF2E72A2906D1931C079A111DAE
:102410000791176802E013464FF0FF371A786C2ACD
:1024200009D15A786C2A02D144F080040AE00133C1
:1024300044F060040BE0682A09D15A78682A03D175
:1024400044F02004023302E0013344F040041A78DF
:10245000642A3CD01FD8462A48D00DD8252A5AD005
:1024600003D8002A00F0B78257E0412A4AD0452A13
:1024700053D144F4424450E0582A31D004D8472A7A
:102480004BD144F4A13448E0612A38D0632A44D1C6
:1024900044F4A06441E06E2A3AD007D8662A22D0DC
:1024A00027D3672A28D0692A11D036E0732A2CD086
:1024B00006D86F2A11D0702A2FD144F440742CE032
:1024C000752A07D0782A28D144F4C85425E044F46A
:1024D000245422E044F410641FE044F488541CE0C7
:1024E00044F4B24419E044F4007416E044F4844423
:1024F00013E044F4024410E044F481340DE044F469
:10250000C1340AE044F4E13407E044F4806404E0B8
:1025100044F4E06401E044F4C0640133069304F43D
:10252000E063B3F5806F00F0AA8116D8B3F5807F21
:102530002BD0B3F5407F7FF4EAAE079BA04914F49B
:10254000804F03F104029F4818BF08460DF1330184
:1025500007920F461A680023C5E1B3F5C06F08D093
:10256000B3F5E06F00F03182B3F5A06F7FF4CFAE2A
:1025700000E2D8F80030D8F80400934901229847C7
:10258000002840F00B820136C1E6002FACBF24F0DA
:102590001004012714F40053039304F0E00337D030
:1025A000402B17D008D8DBB1202B2AD1079B1A1D4E
:1025B000079293F9002017E0602B11D0802B20D1D7
:1025C000079B073323F0070303F108020792D3E9BF
:1025D00000230AE0079B1A1D0792B3F9002003E0CD
:1025E000079B1A1D07921A68D317002A73F100017E
:1025F00009DA524263EB4303CDE900234FF00109AE
:1026000033E000220023CDE900234FF000092CE045
:10261000402B16D007D8CBB1202B20D1079B1A1DF9
:1026200007921A78EEE7602B10D0802B17D1079B0A
:10263000073323F0070303F108020792D3E90023CD
:10264000E1E7079B1A1D07921A88DBE7079B002129
:102650001A1D07921B681846CDE90001D5E7002234
:102660000023CDE900234FF0000904F4C053B3F573
:10267000805F0CD0B3F5C05F33D0B3F5006F4FD19E
:10268000DDE900230DF1360ACDE9042304E0DDE99C
:1026900000230DF1360A15E0DDE9042313433AD097
:1026A000DDE904010A22002306F0DEFEDDE9040173
:1026B00030320AF8012D00230A2206F0D5FECDE9BA
:1026C0000401E9E752EA030125D002F007013031A5
:1026D0000AF8011DD10841EA4371D8080A460346A9
:1026E000F0E7384B14F4804F0DF1360A344908BF37
:1026F0001946DDE9002352EA03000CD002F00F0076
:10270000085C4FEA131E0AF8010D100940EA037035
:1027100002467346EFE70DF1360BCAEB0B0B03E0F5
:102720000DF1360A4FF0000B41F6080241F20803A2
:102730005F4502EA04028CBFCBEB070700279A42F1
:1027400002D1002F08BF012741F608018A4207EB9A
:102750000B030DD1DDE9000150EA010208D01B494D
:1027600014F4804F1A4A4FF0020C18BF0A4602E0D8
:102770004FF0000C62460399A1B1B9F1000F0AD1E4
:1027800004F0060102290AD00629124904BF4FF0BD
:10279000010C0A4606E04FF0010C0F4A02E00F4A16
:1027A0004FF0010C63449D428CBFED1A002514F0DC
:1027B000010922D1E30613D52F444D461DE000BF89
:1027C0001DB72000ABB420003FB7200031B7200078
:1027D0002EB7200036B7200034B720007CB620008A
:1027E00040462946CDF80CC00092FFF76FFD009AD5
:1027F000DDF80CC0002840F0D180BCF1000F0DD0F6
:102800001146D8F800306246D8F80400CDF800C070
:102810009847DDF800C0002840F0C0803C465E4488
:10282000102CD8F800300DD9D8F804006C491022CB
:10283000CDF800C09847002840F0B080103CDDF88B
:1028400000C0EDE75CB1D8F8040065492246CDF838
:1028500000C09847DDF800C0002840F09F80D8F8FD
:102860000030D8F8040051465A466644984700287C
:1028700040F094803E44B9F1000F79D073E0079B9B
:10288000D3F800A01A1D0792BAF1000F09D05346E1
:10289000994699F800200133002AF9D1CAEB0909B9
:1028A00003E0DFF840A14FF00609002F02DBB94535
:1028B00028BFB9464D458CBFC9EB0505002514F06E
:1028C000010405D140462946FFF700FD002865D1E7
:1028D000D8F80030D8F8040051464A4698470028F6
:1028E0005CD14E443EE052EA030E0ED002F00F0ED1
:1028F00010F80EE04FEA131C01F801ED4FEA121E2A
:102900004EEA037E72466346EDE70B467F1A01BF2F
:102910003022012701F1FF3301F8012C033778221F
:10292000BD4203F8012C4FF0300203F8022C88BF9F
:10293000ED1B4FF0230298BF002514F00104A3F112
:10294000030903F8032C04D140462946FFF7BEFCD7
:1029500020BBD8F80030D8F8040049463A469847DA
:10296000E0B93E4424B140462946FFF7AFFCA8B980
:102970002E44CCE4079B012D03F104021B688CBF9D
:1029800005F1FF35002514F0010407928DF8203081
:1029900008D140462946FFF799FC10B14FF0FF30AF
:1029A0001AE02E44D8F80030D8F8040008A9012213
:1029B00098470028F2D16F1C2CB140462946FFF7FA
:1029C00085FC0028EAD13E44A1E4079B1A1D1B6840
:1029D00007921E609BE430460FB0BDE8F08F00BF49
:1029E0000DB7200038B72000F8B503880646154615
:1029F0002BB14A2B15D0002303800320F8BD1748C4
:102A000007F0C1FB04462CB1201DA16807F06DFB47
:102A10002468F8E7124B01221A704A233380012000
:102A2000F8BD8829FBD10D4807F0ADFB0446002C0A
:102A3000F3D0231D9D420ED10848214607F0ADFB7F
:102A4000084B62691F681A60A2691D460AB1E069F5
:102A500090472F60E1E72468E9E700BF14040020F5
:102A6000181800202404002010B5064B0024064846
:102A70001C7007F085FB2146BDE81040034800F0BC
:102A80002FBA00BF1818002014040020C80000202E
:102A900070B504460A4DE3610A4B2E681B786661E7
:102AA000A26133B1084B201D2B6007F01EFB2E6086
:102AB00000E0A1602146BDE87040044807F081BBFA
:102AC0002404002018180020C8000020140400204E
:102AD00070B5094B05461B783BB1084C084B26687E
:102AE0000430236007F00AFB26602946BDE87040E9
:102AF000044807F066BB00BF18180020240400201B
:102B0000C80000201404002010B5084B04461B78B0
:102B10001BB1043000F0A8F801E0C3600361214656
:102B2000BDE81040024807F038BB00BF181800206D
:102B30001404002010B50E4C236813B90D4A13601D
:102B400010BDFEF793FA216891E80C001A44131A9D
:102B50008A6842B192E812002144091A8B4228BFC8
:102B60000B469268F5E71844024B186010BD00BF91
:102B7000180400201C040020014800F0C9B900BF5F
:102B8000D8000020F8B5038805462BB1592B09D091
:102B9000002303800320F8BD1E4A136059232B80B5
:102BA0000120F8BD872920D08229F7D1194F0026AE
:102BB0003C68002CF2D0204607F0D4FA90B1E068CF
:102BC0008821224600F060F950B9E060A3680EB198
:102BD000B36000E03B600023A360FFF7ABFFE5E7D5
:102BE000FFF7CAFF2646A468E3E70A490B680BB95A
:102BF0000B60D3E7D868904201D19B68F7E70B6080
:102C000099680029CAD0C86890420ABF89680B46F3
:102C10009960F5E71804002010B50446FFF7ACFFF3
:102C2000E3680B4A4BB113683BB1A34203D1094A95
:102C30001268DA6007E09B68F6E7064B1B68E36002
:102C400013681460A360BDE81040FFF773BF00BFB6
:102C50001804002024040020024B1868003018BF1C
:102C6000012070471804002010B50B4A0446136871
:102C7000984206D18368136008E09A68A24203D0A4
:102C80001346002BF9D103E0A2689A60FFF752FFC8
:102C90000023A360E36010BD1804002038B58368EA
:102CA00004460D469BB10A4804600220A07304F15B
:102CB0000C0098470238012801D9832D05D1204600
:102CC0002146BDE8384000F005B80123A37338BDA4
:102CD000240400202DE9F8431C4A0446156889465F
:102CE0002B4690461A4E3768A34204D00BB11B689E
:102CF000FAE7BDE8F88334B3A37BABB10023A37339
:102D000045B1AC4204D028468721224607F010FA8C
:102D10002D68F5E7A3683BB14C4505D0346004F15C
:102D20000C0083212A469847D8F800309C4203D1F2
:102D30002268064B05E0134623B11A68A242FAD175
:102D400022681A603760BDE8F88300BF2C040020B9
:102D50002404002010B5094B00221A70084B1C688F
:102D60005CB1E37B3BB101230022A373E2732046F5
:102D70008221FFF793FF2468F2E710BD1D180020A1
:102D80002C040020024B1878421C1A70704700BFB8
:102D90001E180020064B8A221A70064A0023137060
:102DA000054A1370054A1360054A1360704700BF57
:102DB0001E1800201A1800201C1800202C040020C7
:102DC000240400202DE9F041214E33780BB1FFF7A8
:102DD000C1FF204D2C78002C34D0DFF88CE00C2281
:102DE0009EF800301C495A4388181C4F895CDFF854
:102DF0007C804268DFF878C08068013303F01F03ED
:102E0000013C3970C8F80020CCF800008EF8003082
:102E10002C7088B9124C134B1B68236023688BB14C
:102E200033780BB1FFF796FF20683978D8F8002087
:102E300007F07EF92368EFE7812904BF012383733C
:102E400007F076F9337828781844BDE8F08100BFA0
:102E50001D1800201C180020300400201B18002022
:102E6000280400202C0400201A1800202004002030
:102E7000B0050020024A034B10781B7818447047B5
:102E80001C1800201D180020F0B50C4E3478202CA2
:102E900011D00B4B0B4D1B780B4F234403F01F033A
:102EA0002B700C256B430134FD18A860F9546A603F
:102EB00034700020F0BD0120F0BD00BF1C180020C0
:102EC0001A180020191800203004002038B5034CCF
:102ED000256807F02DF9256038BD00BF24040020C7
:102EE00010B50A4609490C68234683420DD00BB140
:102EF0001B68FAE748B1046008600121817383818F
:102F00008121BDE81040FFF7E1BF10BD2C04002077
:102F100038B1837B013B012B9FBF024A0123C3735E
:102F2000137070471D180020024610B50648536004
:102F30000468029B11609360026014B90846FEF7B2
:102F4000E3F8002010BD00BFB405002010B5084C08
:102F5000206858B10023236081684368984723683C
:102F600023B1BDE810401868FEF7CEB810BD00BF11
:102F7000B405002038B505880446672D09D0792DA1
:102F80002ED0002D32D1FFF7FDFE1B4B18701B4BCE
:102F90001D601B4807F0A8F9431C01D167231DE001
:102FA0000A28164B07D01A687E2AF2DC511C1960D9
:102FB000144B9854EDE7196800254A1C1A60114A11
:102FC0000D4B555428461978FFF75EFF0E4B8521AF
:102FD00018682A46FFF758FF20B97923238009E0B3
:102FE000852907D1054B00221A60D2E70023038010
:102FF000032038BD012038BD19210020C005002064
:10300000B8050020A0180020240400200D2810B5C9
:10301000014615D00B4C23782BB90B4807F050F91B
:1030200048B9012306E00A2805D1074807F048F906
:1030300008B1002323700548FFF76AFF012010BD87
:10304000002010BD9F180020B8050020E8000020D7
:1030500008B505480549802207F02BF9BDE808406E
:1030600003480021FFF73CBFB80500201F180020CF
:10307000E8000020054A136843F004031360044B82
:103080001B68906943EA002080B2704700700D40D1
:1030900014700D40174A136823F00C031360164B8D
:1030A00001221A601A68012AFCD1144B08221A6006
:1030B000E322C3F8142203F505731946104B1B686D
:1030C000DB07FBD5102000230E4A0138126802F0FE
:1030D000010243EA02034FEA43039BB2F4D1002BFF
:1030E000F0D0094A180A03F0FE0310601360EF23C2
:1030F0000B60704700700D40A8200D4024860840EA
:10310000648608409C86084014700D4008B5064847
:1031100003F096FA054B01221A7000225A70AA2277
:103120009A70DA7008BD00BF1D33200021190020FD
:1031300010B50F4C0220A17905F016FAA379112BD6
:1031400001D0062B05D1238D618D9942A8BF194668
:1031500008E03A2B05BF94F8281094F82930002194
:1031600043EA01210120BDE8104005F0FDB900BF90
:10317000681A002010B513780446087A83F0020319
:1031800098421DD1487A5378984219D1887A937819
:10319000984215D1C87AD378984211D1087B137917
:1031A00098420DD1487B5379984209D1887B937915
:1031B000984205D1C87BD379984201D103201BE006
:1031C0000B890F4A6BB94B89B3F57F4F09D18B89B6
:1031D000FE2B06D11368C989022023F8021B136055
:1031E0000AE0136851F8080F083343F8080C4868E0
:1031F00043F8040C13600120A040C0B210BD00BF12
:10320000CC05002010B5084C01462378012B08D1CD
:10321000A01C082206F000FC00280CBF204600205D
:1032200010BD002010BD00BF2119002008B50146C7
:10323000102005F0A7F9044B04489B68002198472B
:10324000BDE80840FEF7DEB880B320005132200010
:1032500010B508460C46114602F0ACF9044B1B6849
:1032600013B19B6820469847024B1C6010BD00BFFD
:1032700070060020E00500202DE9F8434FEA1219FE
:10328000B9F10F0F80461D4602F00F040BD00F2C32
:1032900005D1B9F1000F0AD11024274619E0B9F180
:1032A000000F09D004E00F2C4FF0100900D11024BA
:1032B00040464A4606F0E2FB09EB04020F2A274685
:1032C00006DC08EB09000021C2F1100206F0B0FC98
:1032D000BCB1114DC7F110002E6840443146224662
:1032E00006F0CCFB022C08D1B9F10A0F9FBFFF23D7
:1032F00088F80B30FE2388F80C3034442C60BDE88D
:10330000F883B9F1000F05D040462946BDE8F843DF
:1033100007F051B8BDE8F883CC0500202DE9F04F47
:10332000944E954D002387B033702B70044605F002
:10333000B9F805F055F8914F04213860092005F0DF
:1033400013F98F4B8DE860001B680BB1FFF7F0FE9F
:1033500004A80CB98B4900E0214607F069FD8A4BAF
:103360008A4E1A8803933E2A40F20B82D7F800A0B7
:10337000874D0AF102032B60009B06F1180093F8B9
:103380000090002309F102090AF80930FFF73AFF1B
:1033900020B906F10800FFF735FF20B10AF1030359
:1033A0002B60802400E0044672783078130943EAE9
:1033B0000013DBB2990841EA8313DBB212F00F0F5E
:1033C000D9B2DFF8CC8100F00F000ED16F4E7688B5
:1033D0005EB910B912F0F00F21D0D8F80030702685
:1033E00003F8011BC8F800301AE078B912F0F00FAA
:1033F0000CD1296823F03F031A43664B0A701B88DF
:10340000033121F8023C6826296009E05F4A2B68F5
:1034100010686026186003F8041B2B6000E0782613
:103420005A4B9A790293112A08BF46F00406730793
:103430005EBFD8F8003003F8012BC8F80030029BBB
:10344000DB79402B06D0FF2B07D0012B08D146F0AB
:1034500001060BE046F0020608E046F0030605E030
:10346000D8F8002002F8013BC8F80020029A474B28
:10347000128982B95A8972B99A8962B9DA8952B9BC
:103480001A8A42B95A8A32B99A8A22B9DB8A13B99E
:1034900044F0400013E04048FFF7B4FE3F4B186093
:1034A00078B142781AF80930042043EA02130AF886
:1034B000093039493A4AFFF75DFE60F03F00C4B277
:1034C00028E0029B31491A8948F2FE039A420CD146
:1034D0004B8B53B98B8B43B9CB8B33B90420083159
:1034E0002F4AFFF747FE2043E9E7D8F80020DFF82E
:1034F000A8C096460CF1100B634603CB5B45CEF893
:103500000000CEF804109C460EF1080EF4D1204BBA
:1035100010321A60DFF874B09BF81830FF2B40F0BF
:103520008D809BF8192044F0080C022A5FFA8CFC6D
:1035300038D1BBF81A30ABBBBBF81C3093BBBBF81F
:103540001E307BBBBBF8203063BBBBF822304BBBCB
:10355000BBF8243033BB9BF826301BBBD8F80030B7
:103560009BF8272044F00B0003F8012BC4B2C8F8E5
:103570000030A2E0201900202B190020D8050020DF
:1035800070060020C9B72000541A0020681A0020D5
:10359000CC0500206A1A0020701A0020C405002003
:1035A000601A00209C4B588B194688BB988B78BBBF
:1035B000D88BA8B9188C98B9588C88B993F824007E
:1035C00070B9296844F00A00C4B2084600F8012B1B
:1035D00033F8252F043121F8032C9B78837015E0F4
:1035E000C98B8D4BA1B9198C91B993F8221079B977
:1035F000296844F00900C4B2084600F8012B53F8CA
:10360000232F063141F8052C1B790371296054E002
:10361000824ADFF81C82146808F11009A646434666
:1036200003CB4B45CEF80000CEF8041098460EF1BF
:10363000080EF4D11034146064463EE00BF118001B
:10364000FFF7E0FD764B186050B143781AF8091087
:1036500044F004040B43E4B20AF8093000200EE001
:1036600048F2FE03BBF818209A4210D1BBF81A307A
:103670006BB9BBF81C3053B9BBF81E303BB90BF12A
:10368000180104AAFFF776FD2043C4B215E0634A8F
:10369000DFF89C81D2F800E008F11009F4464346B7
:1036A00003CB4B45CCF80000CCF8041098460CF145
:1036B000080CF4D10EF110031360019A5649282327
:1036C00013708B79112B51D14FF2B0030A8D52BA7E
:1036D00092B222F00F0080B2984215D14B8D5BBAA6
:1036E00023F00F031B041B0C83420DD12868F32326
:1036F00003704B8D1A0A0B8D1B0A02EB031303F5A3
:10370000AA634370831C27E0029B43495B8D5BBA2D
:1037100003F47F43B3F5704F09D12B68F1221A707F
:103720000A8DA3F801204A8D120ADA700CE002F427
:103730007F42B2F5704F2B6808D1F2221A700A8DC1
:10374000120A5A704A8D5A80043305E0F0221A702A
:10375000886A053343F8040C2B60324B1A882B68B7
:1037600023F8022B019A2B6030231370009B3A68D8
:103770001B78D65413445C70284B1B689B1A009A24
:1037800019E03A6841231370009B06F128051C7864
:10379000631CDBB21344324603CAAA421860596064
:1037A000164603F10803F6D1009B29341C70019BD7
:1037B000019A1B782833102013700DEB000104F0E0
:1037C000E1FE194BDFF86C901B689847174B30EA05
:1037D000200428BF15245B699847039BC4F17D042E
:1037E0001D88019B241A1E78009BAA1B93F8008059
:1037F000DFF844B0C8EB04039A42DFF840A040F37E
:10380000CC8004F0E9FE7823B5FBF3F50135A8423E
:1038100016DC0020D2E000BF681A0020CC05002092
:10382000C4050020961A002050B3200080B3200069
:10383000801A0020541A0020201900202B19002083
:10384000D7F800809AF8005041462A4608F1040053
:1038500006F08AF9B9F800305A4A6FEA83436FEAF2
:103860009343C3F3072388F80030B9F800300435D8
:1038700088F801301388EDB2190A88F80330013353
:10388000DFF854C188F8021013809BF80010631B06
:1038900023F007034C4E61441A4608EB0500CDF8AF
:1038A00008C08AF800503360019306F0E7F8019BE6
:1038B000581980B204F08EFD04F094FEDDF808C0C3
:1038C000804665460028A4D004A8FFF7AFFC404618
:1038D00004F0C0FE404604F0A7FE3C4A1368904640
:1038E000012B96D0043B012B93D99BF800B0336891
:1038F000053C5B441FFA83FB05238AF80030344BF8
:1039000024F007041A68B9F8003034606FEAC34342
:103910006FEAD343C3F307231370B9F80030537031
:103920002C4B1B889B4548D23A684FEADB0111714A
:103930003268CBEB03039342B8BF234A3868B8BF61
:103940001360009B346893F80090224605EB0B014E
:10395000484406F093F809EB040080B204F03AFD05
:1039600004F040FE044600283FF453AF04A8FFF7DC
:103970005DFC204604F06EFE204604F055FE124B1E
:103980001B689B44D8F800301FFA8BFB012B3FF4D7
:1039900040AF043B012BC3D83BE738680E49404495
:1039A000314406F06BF8B9F800004044801B80B247
:1039B00004F010FD04A8FFF739FC012007B0BDE8B2
:1039C000F08F00BF82130020DC050020E0050020FE
:1039D000D8050020541A0020681A00202DE9F04F65
:1039E0009E4F9F4E87B000243C70347004F0F8FC6A
:1039F0009C4DB8462860042004F0BEFD9A4B00B2EE
:103A000018609A4806F0AEFBDFF88CB2009518B14A
:103A1000974BABF800401C80009B1B6819785D78C1
:103A200045EA012501F0F801C0291AD0E02926D184
:103A30009F7893F804A0DB78BBF8004043EA07279F
:103A40003378C5F30A050533337004F0DDFC2044F8
:103A500034784FF00009041BAC42B4BF00240124A9
:103A60008EE29F78DB78002443EA07273378C5F39A
:103A70000A05043333704FF00109A24680E27C4B03
:103A800000241C80A14627462346A2462546ABF8C3
:103A90000040BBF80020AAB1002D00F08B82744BCF
:103AA0001B88AB4240F08682724B1B88BB4240F0C1
:103AB00081820F2004F072FD01466F4807F0BDF9C6
:103AC000C0B977E26A1E8B2A14D81BB1B9F1000F76
:103AD00000F07082664B4FF480611D80654B634837
:103AE0001F8006F02DFB0F2004F058FD01466248B0
:103AF00007F09EF93778052F00F0CC81009B1968FC
:103B0000CA5D02F0E003602B40F0AB81B81C0F44AB
:103B100097F801B00844594B5FFA8BF10E06186014
:103B200044BF0130186012F0100F0091544E02F0A3
:103B300008012FD1D1B9196831F8010FA6F8010099
:103B40008978F170196811F8040B1960830803F083
:103B50000F0141F060013170717803F0300343EAE6
:103B6000801301F00F010B4373702EE01868602181
:103B70000746317017F8011B03304FEA910E0EF023
:103B8000300E01F00F014EEA0101717039881860A2
:103B900071801AE001F0FF0791B919680878C0F345
:103BA000830040F06000307011F801EB77804FEA3D
:103BB0009E0000F0300040EA8E107070196004E042
:103BC0006023337000237370738002F0040303F0EA
:103BD000FF0101912A4F2BB928490B6813F8010BFB
:103BE000B8710B6012F003020BBF244A254B136817
:103BF0009B5C09BF13F8011BFB711360F9711BF08B
:103C0000400FCBF3011249D0009B190641BF154963
:103C1000134B09681B7851BF00215B18997809097B
:103C200082B1194B1878012805D1587888420CBF09
:103C30001946002100E00021144B1960002940F0D2
:103C4000B78127E11146124B0F209A5C0391029233
:103C500004F0A4FC039903460E4828E02019002034
:103C60002B190020D8050020C8050020D005002011
:103C7000801300207E1300201A210020CC05002094
:103C8000E40500207CB7200021190020C405002095
:103C900095B72000EC05002084130020A54B0F20D1
:103CA0009A5C029204F07AFCA3490346A348029A64
:103CB000FFF7E2FA0BF008000BF0030200F0FF013F
:103CC0000BF00403B0B1002B4AD19D4B1B88ADF81B
:103CD0001430531E012B9FBF9A490B6813F8010B38
:103CE0000B60994B98BF8DF815009A5C974805A911
:103CF000002333E0002B27D0009B1B0641BF9449D3
:103D0000944B09681B7851BF0B465B18997801F0FA
:103D10000F0391490878012804D14878984218BFC8
:103D2000002100E000218D4B00911960002900F076
:103D3000B1808B4B102013F802B004F02FFC0099D7
:103D400003460231814808E07A4B102013F802B094
:103D500004F024FC784903467C485A46FFF78CFA65
:103D600098F80000774900F1280388F80030019B9B
:103D7000002B56D00B681A7802F0F802F02A50D1C6
:103D80001122BA711A7802F0040E02F0F302F03A2E
:103D90005FFA8EFE032A7DD8DFE802F0020A1622BF
:103DA000B3F8012005333A8533F8022C7A852CE0EC
:103DB000B3F801203A85DA78A2F5805292B2120265
:103DC00042F0F0027A8509E05A78A2F5805292B268
:103DD000120242F0F0023A855A887A85043314E0E0
:103DE0005A7802331209A2F5756292B2120242F0B9
:103DF000F002328513F8012C02F00F02A2F5756271
:103E000092B2120242F0F00272850B60BEF1000F16
:103E100004D10B6833F8022BFA850B60303088F838
:103E200000004B4A0B6812689B1A4A4A137065B926
:103E300004F0EAFA474B1B78C01A98F8003018448F
:103E4000283803123B71787104E0A5F128031A1297
:103E50003A717B71BA79434B112A1BD19A889A85A2
:103E600018E0412A40F0A6807A1CD2B28B18DFF805
:103E7000F4E003F1280C724618685968083303C24D
:103E800063459646F7D198F80030293728333770C4
:103E900088F8003004F0B8FA2E4E3378834200F2EE
:103EA000898004F0B1FA337898F800B02E4AC71A26
:103EB0000BEBCA0A17600AEB07028C2A7AD8244A4D
:103EC00028481168504419443A4605F0D7FDDFF8F8
:103ED000AC80264E65B1B9F1000F02D032885A4449
:103EE00032800CB1358007E032883A44328003E0FA
:103EF00007EB0B02A8F8002033881BB1B8F80020AC
:103F00009A4257D1B8F8004019482246154905F0A1
:103F1000B5FD184B1C80184C0023A8F800303380E6
:103F2000236823B1FFF704F923685B68984702F020
:103F3000C7FB3FE080B7200084B72000EC050020DD
:103F40007AB72000CC05002086B72000FC050020B1
:103F5000D80500202B19002021190020C4050020BD
:103F600095B72000E4050020DC0500208413002024
:103F7000681A0020541A00207006002080130020C8
:103F8000BBF8003093B1B9F1000F0FD00F2004F04F
:103F900005FB0146094806F050FF18B9084B188088
:103FA000084B18804FF001094B4672E5012370E57C
:103FB000023148E607B0BDE8F08F00BF1A210020AB
:103FC000801300208413002037B5124B124D1C784B
:103FD0002B796A79C4EB032313449BB2ADF8063006
:103FE000BDF8063005F108011844202280B206F021
:103FF0008BF9BDF8062004F12801294492B206F09D
:1040000083F910B140BA80B201E04FF6FF7003B0FF
:1040100030BD00BF2C190020681A002028492DE966
:10402000F04188460D78274E2835AB195C78264834
:10403000E400073402239C423DDBE9187218715CEE
:10404000204F012932D002D3632902D013E001337B
:104050002FE0037018461C4C03F08AF8D8B998F882
:1040600000302278283313443B445B7813440233F6
:104070002370BDE8F08101F0C001802905D0C0297E
:1040800005D0402912D1037005E0037006E03A7EA6
:104090000370FF2A02D10120BDE8F0810420022133
:1040A000EA1801F041FE0220BDE8F08152780232A8
:1040B0001344DBB2BFE703700020BDE8F08100BF0E
:1040C0002C190020681A002032190020F0B5C5789C
:1040D000124A0D44EDB2D57083780F0A3B44DBB22F
:1040E00093704478BB4254700678167005D2601CF9
:1040F000C0B2507008B901361670C9B28D420CDAE0
:104100000133DBB2054993703BB94B780133DBB225
:104110004B7013B90B7801330B70F0BD5C1A0020A3
:1041200010B5084C014620681430FFF7CFFF064A4F
:10413000236811781975517859759178D2789975E5
:10414000DA7510BD041B00205C1A002008B501F0D0
:104150004BF901F0D1FE02F09DF900231149002234
:1041600021F813200133DBB2082BF7D10E4930239D
:1041700003FB02110132D2B200230A2A81F8253052
:10418000F4D10A4A4FF480611180094A002102EB00
:1041900043120133DBB20A2B1182F6D1054A1370A8
:1041A00008BD00BFF01C0020081B00208813002061
:1041B000041D0020331900202DE9F041134F3D78F4
:1041C00015B3DFF8508005F12703B8F80040A3428B
:1041D00005DB00233B70A8F80030BDE8F0810C4EF1
:1041E000A4F1280205F12801641BA4B206F12800FD
:1041F0003144521B05F0B8FCA8F80040283C2312BB
:104200003371002374713B70BDE8F0812C190020DC
:10421000681A0020541A002030B50A490023082BE0
:104220000DD0094C5A1C34F81350D2B2854204D137
:1042300000220B7024F8132030BD1346EFE70B70FB
:1042400030BD00BF33190020F01C002030B50949F3
:104250000023082B0BD0084C5A1C34F81350D2B250
:104260001DB90B7024F8130030BD1346F1E70B7035
:1042700030BD00BF33190020F01C00202DE9F74F9E
:10428000A44E04283468B246A34F00F06182A349CB
:10429000A34DA44A03280D601560894615D194F8F2
:1042A000253003F00F03032B08D1A38B002B40F024
:1042B000A9869D4B08221A7000F096BD022B40F093
:1042C000A186002305F8073CC8E3022878D1974A65
:1042D00000231380964A3B80D3780133DBB2D3703E
:1042E00063B993780133DBB293703BB953780133F0
:1042F000DBB2537013B913780133137094F825307F
:1043000003F0FD02052A0DD194F826300133DBB20B
:10431000782B84F8263040F07586002384F8253009
:1043200000F070BE002B00F06D86A28B7E48002A44
:104330003DD094F82620511E84F82610002A40F023
:10434000618694F82720082A04D0591E01290AD82A
:10435000052A08D1002384F825308023037002F059
:1043600059FB00F04FBD042A9CBF0321914003F08C
:104370000F0394BFC9B230210132013B84F82610EB
:1043800084F82720072B00F23D86DFE813F0630353
:1043900008000A00F4043B06F4043B06F40400227F
:1043A00059E30423037002F035FB00F05BBD03F01A
:1043B0000F03032B40F026860823037000F014BD82
:1043C000052811D15B4B1B681B8A002B00F01A8655
:1043D0000C3D1560554A0023138033603B80524BDF
:1043E00008220D601A70B1E115F83C3C3C3D03F029
:1043F000F003602B40F006862B796A791B0239881E
:104400009818884200F3FE85283213443B802B7AAB
:10441000FF2B00F0F785484BAA1D484C484E1A6008
:10442000002222703270AA799846B2B90123337003
:10443000FFF7F4FD012800F0E58503D3022800F022
:10444000DD850AE0237803F128022A44C8F8002019
:104450005278083303EBC20323703A4800F060FE41
:10446000002840F0B580374800F000FF002840F0F9
:10447000AF802A7E334BFF2AA3F1180366D048F29F
:10448000FE00198B814261D0198981425ED079B9D1
:10449000598969B9998959B9D98949B91B8A3BB9E7
:1044A000698A294B21B9998A11B9DB8A002B4DD031
:1044B000298B254B79B9598B69B9998B59B9D98B06
:1044C00049B9198C39B9598C29B9998C19B9DB8C2E
:1044D000B3F5807F3AD03B88B3F5A06F04D90220B2
:1044E00000214FF4A06206E0EB79174C012B06D8AF
:1044F00000210A46032001F017FC00F07FBD02F006
:1045000085FE002840F07E85E379013BE37100F0F1
:1045100075BD00BF041B0020541A0020001B0020A2
:10452000A41A0020581A0020F41A0020001D0020B0
:104530002E190020FC1A0020F81A00202C19002047
:104540002D190020801A0020681A002048F2FE036E
:104550002989994240F05685298B9A4B81B9598B0C
:1045600071B9998B61B9D98B51B9198C41B9598CF1
:1045700031B9998C21B9DB8CB3F5807F00F042858D
:10458000FF2A00F03F85904800F0AAFD024600286F
:1045900040F0388501200221ADE721D93A2B6ED0B9
:1045A00026D93B2B00F02E853C2B64D133788749EC
:1045B000980735D558065ED443F040030B70FFF7DB
:1045C0002DFD012800F01E852DD3022800F0168550
:1045D000D8F80020DFF820B213782B2BDDD12EE0A5
:1045E000062B00F00B81112B66D0002B43D103E08A
:1045F0002C2B00F007853EE03378D9073BD4734A73
:1046000043F001031370FFF709FD012800F0FA845D
:10461000DBD2237803F128022A44CBF8002008E0FB
:1046200043F00203CAE7237803F128022A44C8F8BA
:1046300000205278083303EBC2032370C8E73378B5
:1046400003F0040000F0FF01A8B9604A43F004033E
:104650001370227802F128032B44D87810B104207B
:104660002A3248E7CBF800305B78083202EBC3020D
:10467000574B1A70ACE704200121521B3BE705F0B1
:104680005FFE4FF6FF73984240F0BC8423782833D6
:10469000E85C02F001F823782833EA18E85C5178E6
:1046A00001F020FB012804BF00233B803B88002B46
:1046B00000F0A88400F0A2BCFFF77EFD3B88454EC9
:1046C000303B3B80EB8DC9F8006063B9B5F82A80B8
:1046D000B8F1000F00F096843F4B404D2B60394BF2
:1046E000B3F828B00BE005F031FE4FF6FF739842A7
:1046F00040F08884EAE7238A3BB920342C602C6898
:10470000374B9C42F7D300F07DBC9845F5D1638AC6
:104710000BB19B45F1D123682BB963681BB9A36822
:104720000BB9E36833B12F482146102205F074F924
:104730000028E2D12C4A022111702C4A0023166075
:104740002B4ACAF80030C9F80060138002F062F901
:10475000274B1A88002A00F0558402F13003194CC7
:104760009BB23B80283B191263711C4B08321B68BB
:1047700052BA2171197DA2850022E2851A8AE1715F
:1047800022855A8A11216285A17104F118050FCB87
:1047900085E80F0004F10800294600F0C7FD154B1D
:1047A00004F13C021A6005F0D1FDC04380B208B1AB
:1047B000E08502E04FF6FF73E38502F03BFE00F078
:1047C00017BC00BF681A0020801A00202D19002095
:1047D0002C190020981A0020041D0020FC1A00202B
:1047E000441E0020701A0020F41A0020581A0020DD
:1047F000001D0020001B0020F81A0020FFF7DCFC41
:1048000005F0A1FD4FF6FF73984240F0FB83B5F829
:104810002AB0BBF1000F00F0F583BF4B1B8D002BBE
:1048200000F0F083BD4E344696F82580B8F1000FB5
:104830000FD0328A5A450CD1728A9A4209D1B848AF
:1048400031461022019305F0E7F8019B002800F0A3
:104850001B81B44A30369642E6D195F8352002F0F5
:104860003F02022A13D1B049B04E8846A1F800B0E9
:104870000022082A0AD0AE4931F8121001328B45C5
:10488000D2B2F6D100223270944657E0327095F8D9
:104890003520A14B510700F1B583142283F8352050
:1048A0003C223A80502283F8342093F8332093F846
:1048B000314093F82F0083F82F2093F8322093F89B
:1048C0002E109A4E83F82E2093F82D2083F82D4039
:1048D00093F82C400130347093F83060C0B283F804
:1048E000321083F8312083F82C6083F8304083F84D
:1048F000330060B90131C9B283F8321039B90132DD
:10490000D2B283F8312012B9621C83F830202B8D8B
:10491000854A834C13806A8D6B852A8504F11005C6
:1049200094E80F0085E80F002046294600F0FEFCC1
:1049300049E3BEF1070F10D00132D2B20A2A19D0D2
:10494000302101FB024101F1200090F805E0BEF1A9
:10495000000FEED132700C4611E0BCF1000F04D014
:1049600080799CF826108842E6D94FF0300C0CFB79
:10497000024CE1E764463270002C00F043830322CE
:104980006382674B84F8262084F82420042284F86C
:1049900023200FCB84E80F00664B01201A784FF0DC
:1049A000000922765A7884F8250062769A78DB78B6
:1049B000A276E37695F82F30A083E37595F82E3034
:1049C000CAF80040A37595F82D3084F822906375DD
:1049D00095F82C3084F82790A4F810B02375FFF7D1
:1049E0009FFB95F8343003F0F002502A32D9524A36
:1049F0001B09053B980096464B461178834226DA00
:104A0000EA1892F83C1011B3012901D101331CE0DE
:104A1000022915D192F83DC0BCF1040F10D18EF8D7
:104A20000010337092F83E1092F83F3043EA0123B1
:104A3000402BA8F8003028BF4023E383238409E0FB
:104A4000EA1892F83D2012B11344DBB2D6E78EF893
:104A5000001033701022304B83F835202E4B93F822
:104A6000352042F0020283F83520022283F83C20F0
:104A7000042283F83D20002283F83E20402283F860
:104A80003F203A80602262E295F835302B4A03F0ED
:104A900004013446CAF80060107001F0FF0B21B128
:104AA000202386F82500137000E21B4A08F00F0847
:104AB00092F83420B8F1020F4FEA12124FEA820145
:104AC0001A4A11703A88A2F12802A2EB010292B2AE
:104AD0003A8003D103F03F01122905E0B8F1010F3C
:104AE00003D103F03F0102292AD00AB99A0727D03F
:104AF000A98DB28A914204D1074AD18DF28A91429E
:104B00001ED0980740F11C82B8F1010FA2D0B8F175
:104B1000020F40F01582A1E7681A0020081B002050
:104B2000701A0020E81C0020861300203319002092
:104B3000F01C00202E19002034190020F41A002047
:104B4000D90652D5B18B00294FD006F11800FFF7D6
:104B5000BDFAB44B95F830101878B34A884244D166
:104B600092F8311093F801C08C453ED192F832E0B2
:104B70009978714539D192F83320DB78934234D15A
:104B8000F37696F82730307686F819C0B1761BBBDD
:104B900096F8243096F8261096F82200591AA1EBC0
:104BA000D001C9B25FFA81FE1EF0800F96F8233063
:104BB000084418BF4942A3EB930318BF5FFA81FE74
:104BC00003EB0E02C0B2D3B286F8233003EBD0035E
:104BD00086F8220086F82430944B01221A7096F849
:104BE000243086F826300023B38396F82510DFF8AA
:104BF0003C8201F00F03013B072B00F20382DFE848
:104C000013F008002500950058017A0194019F01D6
:104C10004A0198F80020854BD2070FD5032286F869
:104C20002520388840221A700022B283002800F024
:104C3000D88042221A70FFF773FAD2E095F8353027
:104C400003F03F03022B40F0DD8103E798F80030CA
:104C5000DB0760D595F8353003F03F03122B5AD1AE
:104C6000714B93F8343003F0F002502A38D9704A6F
:104C70001B099646053B11786E489B009B452BDA35
:104C800005EB0B0292F83C1031B3012902D10BF174
:104C9000010B1EE0022916D192F83DC0BCF1040FB1
:104CA00011D192F83F308EF8001092F83E10624A0F
:104CB00043EA0123402B138028BF402380F800B033
:104CC000F38333840CE005EB0B0292F83D201AB11C
:104CD00093445FFA8BFBD1E78EF8001080F800B0A8
:104CE000032386F8253095F82C300120337595F88C
:104CF0002D30737595F82E30B37595F82F30F37508
:104D0000FFF70EFA494A422313704C4A0023B3833B
:104D10003B80138068E0202388F8003001F07AFEA1
:104D2000DAF80030002283F82520B0E595F8353018
:104D3000D80725D5CA0623D4B38B002B40F0628157
:104D40003888013080B2FFF7EBF998F8003043F073
:104D5000100288F800203A881AB1344A43F012034E
:104D6000137001F057FE0123B383082386F8253022
:104D7000002386F8273011222B4B83F83520E2E000
:104D800098060DD595F83A2095F83B3043EA022372
:104D9000D9F800201A44C9F800203A88D31A3B8079
:104DA000388848B1CA0607D498F8003043F00203A7
:104DB00088F80030FFF7B4F995F8362095F83730C9
:104DC000318C03EB02239BB21B4A8B42138000D829
:104DD00003B911801388F38398F800309B0700F023
:104DE0001181164B00221A8001F014FE0F4B1A7825
:104DF000124B02F0200000F0FF0128B100221A80BF
:104E000084F825201422B7E702F0100000F0FF0517
:104E1000B0B119800123A383042384F8253084F8DA
:104E20002710A8E75C1A0020681A0020F41A002056
:104E3000341900203319002086130020001D0020A3
:104E4000198861B1D60748BFA583A28B32B9E28B1E
:104E5000914288BF1A801B88A38300E01A80002338
:104E600084F827306D4B1B68C9F800306C4B1B88E9
:104E70002BB1A38B1BB13C333B80182207E0694B5D
:104E80001B789D0740F1BE803C233B801022664B7F
:104E900083F8352059E098F80030DC0740F1B28003
:104EA000002386F825305F4B10221A7001F0B2FD06
:104EB000A8E0388808B1FFF733F995F8353013F0DA
:104EC00001030FD098F80030D80745BF072386F8B4
:104ED00025300623002346BF86F82630B38386F8A4
:104EE000253016E098F80020D1071BD5052286F85A
:104EF0002520B38386E0388808B1FFF711F995F8CB
:104F00003530DA070ED5072386F82530002386F8DA
:104F100026300120FFF704F9102388F8003001F053
:104F200079FD0DE03B885BB96CE098F80030DB0759
:104F300068D5072386F82530002386F8263061E0FF
:104F4000102385F835303C233B80374B502283F8C3
:104F50003420237D344D85F83030637D05F118060B
:104F600085F83130A37D85F83230E37D85F8333024
:104F7000237E85F82C30637E85F82D30A37E85F85E
:104F80002E30E37E85F82F30238A2B85638A6B854C
:104F900094E80F0086E80F0005F10800314600F0A4
:104FA000C5F994F8253003F0100303F0FF022BB18C
:104FB000002385F8373085F8363004E03C2385F847
:104FC000362085F83730184C0623A371174B1B7910
:104FD000E3713B88283B1A1263710023227184F825
:104FE0003B3084F83A30238705F0ADF9C043208781
:104FF0000D4B60221A7000225A705A80094B002211
:105000001A7007E00A4A002313700A4A3B801370A3
:10501000044A137003B0BDE8F08F00BF581A002097
:10502000001D0020F41A0020681A00204C1E0020E9
:105030002C1900202D1900200C4A0346106828B1B5
:105040000B4A121A9142A8BF114602E05029A8BF8C
:105050005021002909DD074A8342118005D08AB218
:1050600000B90548194604F009BD7047581A0020D8
:10507000F41A0020001D0020A41A00202DE9F3419D
:105080000446154D00910E4690461F460195234655
:1050900012480321202205F066F901282B4616D17B
:1050A0002A6804F11001107020462A68023250F874
:1050B000044B884242F8044BF9D11868089B867467
:1050C0004361099B80F813800777836100E000202B
:1050D00002B0BDE8F08100BF78060020481F002024
:1050E00070B506460B4D0C4B2B602C680B4B9C424D
:1050F0000BD2237833B1A27CA01C3146D20804F035
:105100008BFC20B120342C60EFE7002070BD012023
:1051100070BD00BF78060020481F0020A81F002097
:1051200013B5084C802203460092019406480321DF
:10513000202205F018F908B9206800E0002002B02C
:1051400010BD00BF7C060020641E002010B50C4A74
:105150000C4B136013680C498B420DD2197849B17E
:10516000411C02D0997C814204D148F2FE015C8846
:105170008C4202D02033ECE70023184610BD00BF5C
:105180007C060020641E0020C41E002037B50446A3
:105190000F4D80230093019523460E4805211222CE
:1051A00005F0E1F801282B460ED12A6804F1100120
:1051B000107020462A68023250F8044B884242F8A8
:1051C000044BF9D1186800E0002003B030BD00BFE7
:1051D00074060020E81E0020F7B50546204C802309
:1051E00000930E46174601941E48032120222B46A9
:1051F00005F0B9F8012830D12A46236805F11001DD
:1052000018702368023352F8040B8A4243F8040BE7
:10521000F9D12068C77416B90123037505E000238E
:1052200003753146183005F0FDFE23680E48012154
:10523000997402234370FF2200230270438083800D
:10524000C38003818372C17202736B7B4373EB89EA
:10525000C381FFF79BFF206800E0002003B0F0BD92
:105260007C060020641E00208A13002013B5084C21
:10527000802203460092019406480521122205F07F
:1052800072F808B9206800E0002002B010BD00BF2D
:1052900074060020E81E002038B50546C8B10D4848
:1052A000022200244270FF230122C27244808480C3
:1052B000C4800481847203730370EB7B43732B8A75
:1052C000C381FFF7D3FF044A106008B105F06FF8FF
:1052D0002C7038BD8A1300207406002010B50F4BC7
:1052E0000F4C236020680F4B98420ED203784BB1CD
:1052F000037D3BB9183003F0C9FF18B1084B18689B
:10530000FFF7CAFF23682033EBE700F0E1FB00F072
:1053100067F9BDE81040044804F0F0BE641E0020A8
:105320007C060020C41E0020A81F00202DE9F843A1
:1053300048F2FE030A8805469A42884621D00B7837
:10534000FF2B1ED01B4B0024A1461F461A4A1A6091
:105350003E681A4A964218D233787BB1B37C012B4F
:105360000CD148F2FE0372889A4207D04046B11C25
:1053700005F02AF8484524BF3446814620363E6071
:10538000E6E70120FFF7E2FE04464CB92C806C8072
:10539000AC80EC802C816C81AC81EC81BDE8F88321
:1053A000A31C123453F8042BA34245F8042BF9D163
:1053B000BDE8F8837C060020641E0020C41E002087
:1053C00010B5FDF757FE0446FDF754FE054B2402C9
:1053D0009A68A4B22044B0FBF2F302FB130000EB86
:1053E000520010BD4C1E002073B52F4C00F07CF80D
:1053F00000F0A0F9002160222C4804F019FC0021E3
:105400002046F82204F014FC294B20221A70294B64
:1054100018221A704FF4A0632360274B4026267190
:10542000A360FFF7CDFF42F21073236148F2FE0341
:10543000314640F2FF260025E06025751F4C2A46C4
:10544000238065802B46A580E58020460095019548
:10545000FFF714FE20461A4904F0ADFF2946012249
:105460002046FFF7B9FE4FF480732046E381268083
:105470006580A580E58025816581A581FFF786FE91
:105480004FF40073204626806580A580E580258145
:105490006581A581E381FFF779FE0A480C2102B0FE
:1054A000BDE8704004F021BE4C1E0020481F0020C3
:1054B000451F0020441F0020C02709008A13002038
:1054C000601A0020A81F002010B5044640B101F06A
:1054D00081FB044B2146BDE81040186802F0E0BE95
:1054E00010BD00BFF8000020024B0349186802F00D
:1054F0001BBE00BFF8000020C95420002DE9F8436E
:105500009846154B05461868914602F03BFE044646
:10551000F0B1074605F110033E4628686968083572
:1055200003C69D423746F7D104F11000002184F8EC
:10553000219084F8228005F075FD04F11800002107
:1055400005F070FD002384F82030204601F042FB76
:105550002046BDE8F88300BFF8000020024B01465A
:10556000186805F0CFBC00BFF800002070B50C4DE6
:105570000646286802F0ECFD044666B9002070BDBE
:1055800020463146102204F047FA38B121462868F7
:1055900005F088FC0446002CF2D1EFE7204670BDF0
:1055A000F8000020024B0146186805F092BC00BFCD
:1055B000F800002070B5054610200C4602F0EEFF02
:1055C0000649064605F039FC30B9304629462246E0
:1055D000BDE8704001F0C6BA70BD00BFC9B7200079
:1055E00070B53F4D286802F0B3FD0446002876D020
:1055F00094F82230042B6DD8DFE803F01D036C33E0
:10560000410004F11006304603F040FE002861D04E
:10561000204600F0FDF950B1032384F822303046D3
:10562000052105F0FFFC002384F8203052E002231E
:1056300084F822304EE094F82030022B2BD804F16D
:105640001806304603F022FE002843D0254B188868
:1056500000283FD194F820300146013384F82030EF
:105660002CE004F1100003F011FE98B30423002194
:1056700084F8223084F8201004F1180028E094F80F
:105680002030022B0BD9204600F0C2F918B1037F5D
:105690000BB900F09BF92046FFF716FF1AE004F162
:1056A0001806304603F0F2FDA0B10E4B188888B9F9
:1056B000214694F82030013384F82030224600F04F
:1056C00037FE094B304619694FF47A73B1FBF3F199
:1056D00005F0A8FC2868214605F0E4FB85E770BDCD
:1056E000F8000020541A00204C1E00202DE9F04143
:1056F00005460D480F46904604F045FD044688B126
:10570000012D04D8094804F074FD034601E0084B5C
:105710001B682846666839464246B047204604F072
:105720006FFDEBE7BDE8F0814C0E0020E40900209E
:10573000E009002008B50A4804F065FD094804F0B6
:105740001FFD0949094802F0EFFC094804F05BFD20
:10575000084804F015FDBDE80840074804F010BDF6
:1057600028010020880A002021A420001801002020
:105770000C010020E40900204C0E002008B503466F
:1057800038B15968034805F0BDFBBDE8084004F096
:1057900038BE08BD18010020014804F0F4BC00BF69
:1057A000880A00202DE9F0418046FFF7F5FF00262A
:1057B000044637469CB194F82450B5420AD340467B
:1057C00004F10801EA0804F027F918B9802D08D07F
:1057D0002E462746204604F01FFE0446EAE73C46D4
:1057E00067B1084804F0CFFC844207D00548214641
:1057F00004F0D3FC0348214604F0F2FC2046BDE847
:10580000F08100BF880A002038B5044600283DD04A
:105810004368002B3AD01E48214604F0BEFC636862
:10582000586804F0B0FC054630B14368A34207D085
:10583000284604F0E5FCF6E704F1080001F028F939
:1058400063682946586804F0A8FC6368586804F047
:105850009AFC20B963680F48596802F021FD21467F
:105860000D4804F0F4FC29460C4804F0F0FC0C4A06
:1058700020461368013B1360FFF780FF04F1080125
:105880000246BDE838400320FFF730BF38BD00BFF7
:10589000880A00201801002028010020340100207F
:1058A000E009002010B5044678B1406868B104F002
:1058B0006AFC20B14068FFF7A7FF6068F7E7214660
:1058C000BDE81040014802F0EBBC10BD18010020FB
:1058D0002DE9F047074610468946904604F093FDAF
:1058E000824610B90020BDE8F0873846FFF75AFF1E
:1058F000044660B1FFF742FF014628B1404610223E
:1059000004F08AF8002854D02046FFF77DFF2A4E85
:105910003368142B04D1294804F037FCFFF774FFD7
:105920002748514605F0D5FA054658B9244851464E
:1059300002F028FC05460028D4D0002368600360EC
:1059400004F01EFC1F4804F06EFC04460028C9D079
:105950001A48214604F044FC1B4804F064FC8246CB
:1059600020B92146174804F072FCBBE74460686820
:10597000514604F026FC33686560013333603B46D2
:1059800004F1080507F110062A461868596808331B
:1059900003C2B3421546F7D100210C2284F82490AB
:1059A00004F1180004F044F9022039464246FFF79A
:1059B0009DFE2046BDE8F087E0090020880A00200F
:1059C00018010020280100203401002038B50546C8
:1059D0000D4804F0D8FB0446A0B1AC420ED12146DC
:1059E000094804F0DAFB2146084804F030FC211D88
:1059F00001200A46BDE83840FFF778BE204604F093
:105A0000FFFBE8E738BD00BFE40900200C010020DF
:105A100038B50546084804F0B6FB044648B1201DD9
:105A20002946102203F0F8FF18B1204604F0E8FBE5
:105A3000F3E7204638BD00BFE4090020F8B505466D
:105A40000F46FFF7E5FF044640B9134804F0EBFBAF
:105A50000446F0B11148214604F0C2FB2B46261D36
:105A600005F1100E324618685968083303C27345B1
:105A70001646F7D137B104F11400394605F0D2FAD1
:105A8000002300E001232377002029462A46FFF760
:105A90002DFE2046F8BD00BF0C010020E4090020C7
:105AA00038B50A4804F06FFB0446002564B1251D93
:105AB0002846FFF75BFD10B190F8223023B920464D
:105AC00004F09EFB0446F1E7284638BDE4090020B7
:105AD00010B50A4804F057FB044670B1237F43B960
